:100000004001002019170000851700008D1700001F
:1000100095170000951700009517000000000000DC
:100020000000000000000000000000009517000024
:1000300095170000000000009517000095170000BC
:100040009517000095170000951700009517000000
:1000500095170000951700009517000095170000F0
:1000600095170000951700009517000095170000E0
:1000700095170000951700009517000095170000D0
:1000800095170000951700009517000095170000C0
:1000900095170000951700009517000095170000B0
:1000A00095170000951700009517000095170000A0
:1000B0009517000095170000951700009517000090
:1000C0009517000095170000951700009517000080
:1000D0009517000095170000951700009517000070
:1000E00095170000000000000000000095170000B8
:1000F0009517000095170000951700009517000050
:10010000951700009517000095170000951700003F
:100110000000000000000000951700009517000087
:10012000951700009517000095170000951700001F
:10013000951700009517000095170000951700000F
:1001400000000000000000000000000000000000AF
:1001500095170000951700009517000095170000EF
:10016000000000000000000000000000000000008F
:10017000000000000000000000000000000000007F
:10018000000000000000000000000000000000006F
:10019000000000000000000000000000000000005F
:1001A000000000000000000000000000000000004F
:1001B000951700009517000095170000951700008F
:1001C000951700009517000095170000951700007F
:1001D000951700009517000095170000951700006F
:1001E000951700009517000095170000000000000B
:1001F00000000000951700009517000095170000FB
:100200009517000095170000000000000000000096
:10021000951700009517000095170000951700002E
:10022000951700009517000095170000951700001E
:10023000951700009517000095170000951700000E
:1002400095170000951700009517000095170000FE
:1002500095170000951700009517000095170000EE
:1002600095170000951700009517000080B582B023
:1002700000AFA04801F068FB00F006FB00F030FB87
:1002800000F0E4FA01F014F99B4B1B6803F07C03C7
:100290009A4A1360994B1A68994B1B689A4200F06E
:1002A0008D81964B1B68042B2AD1964B1B68591CD9
:1002B000954B83FB01239A10CB17D21A13469B0050
:1002C00013445B00CA1A8F4B1A608E4B1B68DBB25B
:1002D0003033DBB25AB28D4B1A708D4B01221A802B
:1002E0008C4B01221A808C4B00221A608B4B00220F
:1002F0001A608B4A8A4B1B6843F0100313605DE160
:100300007E4B1B68082B2AD1854A854B1B6843F01E
:1003100020031360834B1B68591C7B4B83FB012319
:100320009A10CB17D21A13469B0013445B00CA1ACB
:100330007C4B1A607B4B1B68DBB23033DBB25AB2AA
:10034000724B5A70784B01221A80784B01221A8026
:10035000714B00221A60714B00221A602EE1674B2C
:100360001B68102B15D1724A714B1B6843F00403B4
:100370001360664B2E229A706E4B01221A806E4BD0
:1003800001221A80644B00221A60644B00221A601A
:1003900014E15A4B1B68202B2AD1654A644B1B6819
:1003A00043F008031360654B1B68591C564B83FBD5
:1003B00001239A10CB17D21A13469B0013445B00FB
:1003C000CA1A5E4B1A605D4B1B68DBB23033DBB27E
:1003D0005AB24E4BDA705A4B01221A80594B012205
:1003E0001A804D4B00221A604C4B00221A60E5E047
:1003F000424B1B68402B2AD1494A494B1B6843F0AA
:1004000040031360504B1B68591C3F4B83FB012377
:100410009A10CB17D21A13469B0013445B00CA1ADA
:10042000494B1A60484B1B68DBB23033DBB25AB21F
:10043000364B1A71454B01221A80454B01221A8016
:10044000354B00221A60354B00221A60B6E0344A60
:10045000334B1B6823F010031360314A304B1B6889
:1004600023F020031360324A314B1B6823F004034E
:1004700013602F4A2E4B1B6823F008031360284A91
:10048000274B1B6823F0400313604CF2503001F0FF
:1004900056FA204BB3F90030012B13D0234BB3F99C
:1004A0000030012B0ED0244BB3F90030012B09D0C2
:1004B000274BB3F90030012B04D0224BB3F90030A5
:1004C000012B7BD1134BB3F90030012B06D18B20CC
:1004D00001F068F80D4801F0F7F860E0134BB3F94C
:1004E0000030012B38D18C2001F05CF8194801F064
:1004F000EBF854E040054002FC43004008000020B7
:1005000020000020100000206766666600000020C2
:1005100024000020260000203C0000200C000020C9
:10052000FC63004014000020280000202A00002066
:10053000FC7300402C0000202E000020180000203A
:1005400030000020320000201C0000203400002079
:1005500036000020010000209F4BB3F90030012B32
:1005600006D18D2001F01EF89C4801F0ADF816E090
:100570009B4BB3F90030012B06D18E2001F012F80D
:10058000984801F0A1F80AE0974BB3F90030012B2D
:1005900005D18F2001F006F8944801F095F8944BAE
:1005A00000221A80934B00221A808B4B00221A8063
:1005B0008B4B00221A808C4B00221A808E4B1B68BA
:1005C0008E4A13608E4BB3F90030012B0ED08D4B49
:1005D000B3F90030012B09D08B4BB3F90030012B5C
:1005E00004D08A4BB3F90030012B6BD1804BB3F9A7
:1005F0000030012B66D07F4BB3F90030012B61D066
:10060000754BB3F90030012B5CD0754BB3F900305A
:10061000012B57D0744BB3F90030012B52D07C4BD7
:100620001B6801337A4A1360794B1B68794A9342FD
:1006300040F0D180724B00221A80724B00221A8047
:10064000754B00221A80704B00221A806F4B0022DB
:100650001A80724B1B684FF47A7202FB03F2704BE4
:100660001B68642101FB03F3D1186E4B1A68134613
:100670009B0013445B00CA186B4B1B6813446B4A06
:1006800013606B4A6A4B1B6843F01003136000232E
:100690007B6002E07B6801337B607B68654A934244
:1006A000F8DD634A624B1B6823F010031360624B52
:1006B0001B68614B00221A605C4B1B68184600F0F7
:1006C0003BF988E04C4B1B68102B7FF4DDAD5B4B96
:1006D0001B680133594A1360584B1B68584A9342B0
:1006E0007FF4D2AD574A574B1B6843F008031360A1
:1006F00000233B6002E03B6801333B603B684D4AAE
:100700009342F8DD4F4A4F4B1B6823F008031360F8
:100710004D4B30221A704C4B30225A704A4B3022CB
:100720009A70494B3022DA70474B30221A71434B92
:1007300000221A60394B00221A60394B00221A60DD
:10074000384B00221A60384B00221A602C4B0022D2
:100750001A80274B00221A802A4B00221A80254B30
:1007600000221A802C4B00221A801B4B00221A8078
:10077000254B00221A801A4B00221A80234B00229C
:100780001A80194B00221A80284B00221A60204B35
:1007900000221A601A4B00221A80154B00221A8080
:1007A000184B00221A80134B00221A801A4B002289
:1007B0001A80094B00221A80134B00221A80084B22
:1007C00000221A80114B00221A80074B00221A8047
:1007D000012000F0E7FE57E52E0000200200002077
:1007E000320000200300002036000020040000201A
:1007F000260000202A000020080000202000002001
:1008000024000020280000203000002034000020B8
:100810003C000020A02526002C0000201000002015
:1008200014000020180000201C00002038000020C8
:10083000FC630040BF270900FC4300400C0000207F
:10084000A0F01900FC7300400000002080B483B0C9
:1008500000AF0A4A094B1B6843F001031360074BC2
:100860001B687B60064B80221A60064BFF221A60D1
:1008700000BF0C37BD465DF8047B704708E60F40AB
:10088000004400401C45004080B483B000AF104AD3
:100890000F4B1B6843F0080313600D4B1B687B6014
:1008A0000C4A0C4B1B6843F01C0313600A4A0A4BAA
:1008B0001B6823F01C031360084A084B1B6843F0B5
:1008C0001C03136000BF0C37BD465DF8047B704706
:1008D00008E10F4000740040207400401C75004087
:1008E00080B483B000AF104A0F4B1B6843F0040381
:1008F00013600D4B1B687B600C4A0C4B1B6843F06C
:10090000700313600A4A0A4B1B6823F070031360DC
:10091000084A084B1B6843F07003136000BF0C3794
:10092000BD465DF8047B704708E10F40006400405D
:10093000206400401C65004080B596B000AF786030
:10094000012000F02FFE0023BB6300237B63002304
:100950003B630023FB620023BB6200237B62002316
:100960003B620023FB610023BB6100237B6100230A
:100970003B610023FB607B688F4A82FB0312D2112C
:10098000DB17D31ABB62BB6A8C4A02FB03F27B689B
:100990001344BB607B68884A82FB0312D111DA17CB
:1009A0008A1A4FF4FA6101FB02F29B1A7B60BB6862
:1009B000814A82FB03129211DB17D31ABB63BB6B14
:1009C0007F4A02FB03F3BA681344BB60BB687D4AED
:1009D00082FB03125211DB17D31A7B637B6B6FF020
:1009E000630202FB03F3BA681344BB60BB68764A38
:1009F00082FB03129210DB17D31A3B633B6B6FF041
:100A0000090202FB03F3BA681344BB60BB68FB62D4
:100A1000BB6BDBB23033DBB25AB26C4B1A707B6B00
:100A2000DBB23033DBB25AB2684B5A70674B2E22BE
:100A30009A703B6BDBB23033DBB25AB2634BDA7085
:100A4000FB6ADBB23033DBB25AB2604B1A71BB6A5D
:100A5000DBB23033DBB25AB25D4B1A705C4B2D22E5
:100A60005A708B2000F09EFD584800F03DFEC020DB
:100A700000F098FD564800F037FE564800F034FE6E
:100A800000237B6509E0544B1B6803F01003002B27
:100A900040F05B847B6D01337B657B6D4F4A9342F5
:100AA000F1DD012000F07EFD7B68434A82FB0312EA
:100AB0009211DB17D31A7B627B6A414A02FB03F275
:100AC0007B681344BB607B683B4A82FB0312911135
:100AD000DA178A1A4FF47A7101FB02F29B1A7B60D3
:100AE000BB68354A82FB03129211DB17D31ABB6332
:100AF000BB6B334A02FB03F3BA681344BB60BB68A9
:100B0000304A82FB03125211DB17D31A7B637B6BD3
:100B10006FF0630202FB03F3BA681344BB60BB6867
:100B2000294A82FB03129210DB17D31A3B633B6BFB
:100B30006FF0090202FB03F3BA681344BB60BB68A1
:100B4000FB62BB6BDBB23033DBB25AB21F4B1A70A5
:100B50007B6BDBB23033DBB25AB21C4B5A701B4B8F
:100B60002E229A703B6BDBB23033DBB25AB2174B9A
:100B7000DA70FB6ADBB23033DBB25AB2134B1A7154
:100B80007B6ADBB23033DBB25AB2114B1A70104BB6
:100B90002D225A708B2000F005FD0C4800F0A4FDBA
:100BA000C02000F0FFFC0A4800F09EFD0C4800F059
:100BB0009BFD00233B651FE0D34D621030F8FFFF23
:100BC00018FCFFFF1F85EB51676666664401002035
:100BD00040010020901B0000FC4300407F8D5B0023
:100BE0009C1B0000984B1B6803F01003002B40F087
:100BF000AE833B6D01333B653B6D944A9342F1DD1F
:100C0000012000F0CFFC7B68914A82FB0312521155
:100C1000DB17D31A3B623B6A8E4A02FB03F27B6806
:100C20001344BB607B688A4A82FB03125111DA17B6
:100C30008A1A4FF4FA7101FB02F29B1A7B60BB68BF
:100C4000834A82FB03129211DB17D31ABB63BB6B7F
:100C5000814A02FB03F3BA681344BB60BB687F4A56
:100C600082FB03125211DB17D31A7B637B6B6FF08D
:100C7000630202FB03F3BA681344BB60BB68784AA3
:100C800082FB03129210DB17D31A3B633B6B6FF0AE
:100C9000090202FB03F3BA681344BB60BB68FB6242
:100CA000BB6BDBB23033DBB25AB26E4B1A707B6B6C
:100CB000DBB23033DBB25AB26A4B5A70694B2E2228
:100CC0009A703B6BDBB23033DBB25AB2654BDA70F1
:100CD000FB6ADBB23033DBB25AB2624B1A713B6A49
:100CE000DBB23033DBB25AB25F4B1A705E4B2D224F
:100CF0005A708B2000F056FC5A4800F0F5FCC020DA
:100D000000F050FC584800F0EFFC584800F0ECFCB4
:100D10000023FB6409E04C4B1B6803F01003002B1D
:100D200040F01783FB6C0133FB64FB6C474A934232
:100D3000F1DD012000F036FC7B68484A82FB03129B
:100D40005211DB17D31AFB61FB696FF0630202FBE0
:100D500003F27B681344BB607B68404A82FB03124A
:100D60005111DA178A1A642101FB02F29B1A7B6087
:100D7000BB68374A82FB03129211DB17D31ABB639D
:100D8000BB6B354A02FB03F3BA681344BB60BB6814
:100D9000324A82FB03125211DB17D31A7B637B6B3F
:100DA0006FF0630202FB03F3BA681344BB60BB68D5
:100DB0002B4A82FB03129210DB17D31A3B633B6B67
:100DC0006FF0090202FB03F3BA681344BB60BB680F
:100DD000FB62BB6BDBB23033DBB25AB2214B1A7011
:100DE0007B6BDBB23033DBB25AB21E4B5A701D4BF9
:100DF0002E229A703B6BDBB23033DBB25AB2194B06
:100E0000DA70FB6ADBB23033DBB25AB2154B1A71BF
:100E1000FB69DBB23033DBB25AB2134B1A70124BA0
:100E20002D225A708B2000F0BDFB0E4800F05CFCB8
:100E3000C02000F0B7FB0C4800F056FC0C4800F056
:100E400053FC0023BB641FE0FC4300407F8D5B002C
:100E5000D34D62100CFEFFFF18FCFFFF1F85EB5106
:100E6000676666664401002040010020A41B000064
:100E7000AC1B0000994B1B6803F01003002B40F0E3
:100E80006A82BB6C0133BB64BB6C954A9342F1DD53
:100E9000012000F087FB7B68924A82FB031212114B
:100EA000DB17D31ABB61BB696FF0310202FB03F29F
:100EB0007B681344BB607B688A4A82FB0312111172
:100EC000DA178A1A322101FB02F29B1A7B60BB6897
:100ED000854A82FB03129211DB17D31ABB63BB6BEB
:100EE000824A02FB03F3BA681344BB60BB687D4AC5
:100EF00082FB03125211DB17D31A7B637B6B6FF0FB
:100F0000630202FB03F3BA681344BB60BB68784A10
:100F100082FB03129210DB17D31A3B633B6B6FF01B
:100F2000090202FB03F3BA681344BB60BB68FB62AF
:100F3000BB6BDBB23033DBB25AB26E4B1A707B6BD9
:100F4000DBB23033DBB25AB26A4B5A70694B2E2295
:100F50009A703B6BDBB23033DBB25AB2654BDA705E
:100F6000FB6ADBB23033DBB25AB2624B1A71BB6937
:100F7000DBB23033DBB25AB25F4B1A705E4B2D22BC
:100F80005A708B2000F00EFB5A4800F0ADFBC020D9
:100F900000F008FB584800F0A7FB584800F0A4FBFD
:100FA00000237B6409E04D4B1B6803F01003002B0A
:100FB00040F0D3817B6C01337B647B6C484A934265
:100FC000F1DD012000F0EEFA7B68464A82FB031255
:100FD000D210DB17D31A7B617B696FF0180202FB1A
:100FE00003F27B681344BB607A683E4B83FB0213B9
:100FF000D910D317C91A0B469B000B4499000B4418
:10100000D31A7B60BB68384A82FB03129211DB174C
:10101000D31ABB63BB6B354A02FB03F3BA681344B4
:10102000BB60BB682F4A82FB03125211DB17D31A35
:101030007B637B6B6FF0630202FB03F3BA681344BC
:10104000BB60BB682A4A82FB03129210DB17D31ADB
:101050003B633B6B6FF0090202FB03F3BA68134476
:10106000BB60BB68FB62BB6BDBB23033DBB25AB236
:10107000204B1A707B6BDBB23033DBB25AB21D4BA4
:101080005A701C4B2E229A703B6BDBB23033DBB2B2
:101090005AB2184BDA70FB6ADBB23033DBB25AB2A9
:1010A000144B1A717B69DBB23033DBB25AB2124B8C
:1010B0001A70114B2D225A708B2000F073FA0D48D4
:1010C00000F012FBC02000F06DFA0B4800F00CFBA2
:1010D0000B4800F009FB00233B641DE0FC4300408B
:1010E0007F8D5B001F85EB51D34D621018FCFFFF15
:1010F000676666664401002040010020B41B0000C2
:10110000C01B0000974B1B6803F01003002B40F03E
:1011100026813B6C01333B643B6C934A9342F1DD87
:10112000012000F03FFA7B68904A82FB0312921084
:10113000DB17D31A3B613B696FF0090202FB03F234
:101140007B681344BB607A68884B83FB0213991059
:10115000D317C91A0B469B000B445B00D31A7B6064
:10116000BB68834A82FB03129211DB17D31ABB635D
:10117000BB6B804A02FB03F3BA681344BB60BB68D5
:101180007D4A82FB03125211DB17D31A7B637B6B00
:101190006FF0630202FB03F3BA681344BB60BB68E1
:1011A000724A82FB03129210DB17D31A3B633B6B2C
:1011B0006FF0090202FB03F3BA681344BB60BB681B
:1011C000FB62BB6BDBB23033DBB25AB26B4B1A70D3
:1011D0007B6BDBB23033DBB25AB2684B5A70674B71
:1011E0002E229A703B6BDBB23033DBB25AB2634BC8
:1011F000DA70FB6ADBB23033DBB25AB25F4B1A7182
:101200003B69DBB23033DBB25AB25D4B1A705C4BD8
:101210002D225A708B2000F0C5F9584800F064FA6E
:10122000C02000F0BFF9564800F05EFA554800F0C3
:101230005BFA0023FB6309E04A4B1B6803F01003D1
:10124000002B40F0A380FB6B0133FB63FB6B464A32
:101250009342F1DD012000F0A5F97B68FB607A681C
:10126000FB68D31ABB6000237B60BB68404A82FBEB
:1012700003129211DB17D31ABB63BB6B3D4A02FB0F
:1012800003F3BA681344BB60BB683B4A82FB03129A
:101290005211DB17D31A7B637B6B6FF0630202FB87
:1012A00003F3BA681344BB60BB68304A82FB031285
:1012B0009210DB17D31A3B633B6B6FF0090202FB02
:1012C00003F3BA681344BB60BB68FB62BB6BDBB261
:1012D0003033DBB25AB2294B1A707B6BDBB230333E
:1012E000DBB25AB2254B5A70244B2E229A703B6BBC
:1012F000DBB23033DBB25AB2204BDA70FB6ADBB2BE
:101300003033DBB25AB21D4B1A71FB68DBB230339B
:10131000DBB25AB21A4B1A70194B2D225A708B201D
:1013200000F040F9154800F0DFF9C02000F03AF96C
:10133000134800F0D9F9144800F0D6F900F092FBF8
:101340000346184600F0FBFA21E000BF1FE000BF93
:101350001DE000BF1BE000BF19E000BF17E000BFA9
:1013600015E000BFFC4300407F8D5B00676666664A
:10137000D34D621018FCFFFF1F85EB514401002084
:1013800040010020CC1B0000D41B000000BF354BE7
:1013900030221A70334B30225A70324B30229A70FE
:1013A000304B3022DA702F4B30221A712E4B002234
:1013B0001A602E4B00221A602D4B00221A602D4B12
:1013C00000221A602C4B00221A602C4B00221A803B
:1013D0002B4B00221A802B4B00221A802A4B002212
:1013E0001A802A4B00221A80294B00221A80294B8E
:1013F00000221A80284B00221A80284B00221A80D3
:10140000274B00221A80274B00221A60264B00220D
:101410001A601A4B00221A80194B00221A80194BAD
:1014200000221A80184B00221A80184B00221A80C2
:10143000174B00221A80174B00221A80164B0022ED
:101440001A80164B00221A80154B00221A80174B67
:1014500010221A60012000F0A5F800BF5837BD46E1
:1014600080BD00BF000000200C0000201000002004
:1014700014000020180000201C0000202400002080
:1014800026000020280000202A0000202C00002038
:101490002E00002030000020320000203400002008
:1014A00036000020380000203C00002020000020F2
:1014B00080B500AF394800F031FAFF21384800F01C
:1014C0001FFA41F2883000F03AFA00220121344834
:1014D00000F013FA3022F021314800F00EFA022217
:1014E00002212F4800F009FA0A2000F028FA002211
:1014F00002212B4800F001FA41F2883000F01FFA77
:101500003022F021264800F0F8F902220221244876
:1015100000F0F3F90A2000F012FA0022022120481C
:1015200000F0EBF941F2883000F009FA3022F021A6
:101530001B4800F0E2F902220221194800F0DDF90F
:101540000A2000F0FCF900220221154800F0D5F92C
:1015500041F2883000F0F3F92022F021104800F029
:10156000CCF9022202210E4800F0C7F90A2000F04F
:10157000E6F9002202210A4800F0BFF941F2883062
:1015800000F0DDF9282000F00DF80C2000F00AF83A
:10159000012000F007F800BF80BD00BF010800F087
:1015A0000050004080B582B000AF0346FB71FB796C
:1015B00023F00F03DBB21A46F0211E4800F09DF91C
:1015C000002201211B4800F098F90222022119484B
:1015D00000F093F94CF2503000F0B1F900220221F2
:1015E000144800F08AF94CF2503000F0A8F9FB7969
:1015F0001B01DBB21A46F0210E4800F07EF90022F2
:1016000001210C4800F079F902220221094800F07A
:1016100074F90A2000F093F900220221054800F035
:101620006CF94CF2503000F08AF900BF0837BD4623
:1016300080BD00BF0050004080B582B000AF0346BF
:10164000FB71FB7923F00F03DBB21A46F0211D4832
:1016500000F053F9012201211A4800F04EF902224C
:101660000221184800F049F90A2000F068F9002228
:101670000221144800F041F94CF2503000F05FF9BB
:10168000FB791B01DBB21A46F0210E4800F035F958
:10169000012201210B4800F030F902220221094801
:1016A00000F02BF90A2000F04AF900220221054837
:1016B00000F023F94CF2503000F041F900BF083738
:1016C000BD4680BD0050004080B582B000AF78605C
:1016D0007B6893F90030DBB21846FFF7ADFF00BF1F
:1016E0000837BD4680BD00BF80B582B000AF7860CE
:1016F00008E07B685A1C7A6093F90030DBB2184628
:10170000FFF79AFF7B6893F90030002BF1D100BFFF
:101710000837BD4680BD00BF80B582B000AF134B17
:101720007B60134B3B6007E03B681A1D3A607A68A8
:10173000111D796012681A603B680E4A9342F3D318
:101740000E480F494FF000028842B8BF40F8042B02
:10175000FADB094A084B1B6843F470031360FEF779
:1017600085FD00BF0837BD4680BD00BF641C00007A
:10177000000000200500002088ED00E008000020A7
:101780004901002080B400AFFEE700BF80B400AF85
:10179000FEE700BF80B400AFFEE700BFD0F8003422
:1017A00012F0010F10B500F5806414BF0B438B439A
:1017B000236012F0020FD0F8202400F5846314BFD8
:1017C000114322EA0101196010BDF0B5C2F34116C0
:1017D000002441FA04F5ED0711D5D0F8C47F650067
:1017E0004FF0030C0CFA05FC27EA0C07C0F8C47F85
:1017F000D0F8C47F06FA05F53D43C0F8C45F013454
:10180000082CE6D1D0F8004512F0010F00F5A065D4
:1018100014BF0C438C432C60D0F8044512F0020F27
:1018200000F2045514BF0C438C432C60D0F80845DB
:1018300012F0040F00F5A16514BF0C438C432C601B
:10184000D0F8184512F0080F00F5A36514BF0C433B
:101850008C432C6012F0100FD0F83C2500F23C5461
:1018600014BF0A438A432260D0F80C2513F0010FFD
:1018700000F20C5414BF0A438A432260D0F81025AA
:1018800013F0020F00F5A26414BF0A438A432260DA
:10189000D0F8142513F0040F00F2145414BF0A43B7
:1018A0008A432260D0F81C2513F0080F00F21C5464
:1018B00014BF0A438A432260D0F8442513F4007F02
:1018C00000F2445414BF0A438A432260D0F84025F2
:1018D00013F4407F00F5A86414BF0A438A432260D2
:1018E00000F5A5621BB9D0F82805014303E0D0F844
:1018F000283523EA01011160F0BD40F8212070472E
:1019000038B50122082305460C46FFF75EFF28463E
:1019100021460122BDE83840FFF740BFC3B2C0F303
:101920000720990000F57E2341F0844203F5C06151
:1019300021F4700042EA401201231360704701381D
:101940007FF4FDAF704700003E4AF0B53E4D14688D
:10195000296824F4800343F4006341F400661360B3
:101960002E60E50715D5C40713D460F001042340A9
:10197000364C4FF48075256013604FF40022344CD0
:10198000246814F4807F02D1013AF8D158E0002A8B
:1019900056D023F4FE6621F000412E4B21F0700258
:1019A00042F4006500F4FE6703403E4345EA030449
:1019B00000F0080744EAC7022349224C26F40053EA
:1019C000266000F400550A60204E22F400522B439A
:1019D00040272A4337604EBF0A6023600A6023F025
:1019E000F86148BF236021F001031B4901400B430C
:1019F00022F0FC5200F0FC510A43410007D5174980
:101A000022F48002014043F480030A4301E022F003
:101A1000804201050BD44FF4004111480068C00713
:101A200001D40139F9D123F4006322F4006205489E
:101A30000549036010200A60BDE8F040FFF77FBF52
:101A4000F0BD00BF60E00F4070E00F4058E00F4075
:101A500050E00F40300000800100C007000040400F
:101A600068E10F403F4B19681A69002AB4BF02F0C1
:101A7000700301F03003202B70B515D004D853B19A
:101A8000102B6DD1384B10E0302B0AD0702B67D162
:101A90004FF4004309E0C1F38410344B53F8203075
:101AA00003E047F2305300E0314B002A02DA12F42F
:101AB000006F01E011F4006F32D12E4D2C686D687B
:101AC00005F01F06701C4600C5F30420013070436A
:101AD000B3FBF0F0A305C4F3892444439B0DA40A8F
:101AE00003FB00432448006800F47040B0F5804FC9
:101AF00041F4800110D007D8B0F5005F13D0B0F5E5
:101B0000405F0DD11D480FE0B0F5E04F06D0B0F5B5
:101B1000104F05D11A4807E01A4805E01A4803E0BB
:101B20004FF0FF3000E0194811F4800F14D0002A64
:101B30000DDA510005D5110503D45B00C2F38652BE
:101B400001E0C2F3C552511CB3FBF1F304E0C1F351
:101B5000C352511CB3FBF1F3834238BF184670BD2A
:101B6000002070BD60E00F400024F400E01B000086
:101B700000093D0060E10F4010E00F4080F0FA02E4
:101B8000002D3101005A620240787D0100B4C40486
:101B90005969726D696C696B000000004F6E6C755D
:101BA0006B0000004265736C696B00004269726CE7
:101BB000696B0000596172696D6C696B000000000F
:101BC00043657972656B6C696B0000004D657465E7
:101BD0006C696B004B757275736C756B000000005F
:101BE00040420F0000201C0080841E000080250061
:101BF000999E36000040380000093D0000803E00FC
:101C000000004B00404B4C0000204E00808D5B00DC
:101C100000C05D000080700000127A0000007D00AE
:101C200080969800001BB7000080BB00C0E8CE0083
:101C3000647ADA000024F4000000FA0080A812019F
:101C4000002D310100366E0140787D01F8B500BFEE
:101C5000F8BC08BC9E467047F8B500BFF8BC08BC8D
:041C60009E467047E5
:051C640030302E30308D
:00000001FF
